{
	"contracts/GameContract.sol": {
		"GameContract": {
			"abi": [
				{
					"inputs": [
						{
							"internalType": "address[]",
							"name": "_players",
							"type": "address[]"
						}
					],
					"stateMutability": "nonpayable",
					"type": "constructor"
				},
				{
					"inputs": [
						{
							"internalType": "address",
							"name": "player",
							"type": "address"
						}
					],
					"name": "containsPlayer",
					"outputs": [
						{
							"internalType": "bool",
							"name": "",
							"type": "bool"
						}
					],
					"stateMutability": "nonpayable",
					"type": "function"
				},
				{
					"inputs": [],
					"name": "gameContractStartTime",
					"outputs": [
						{
							"internalType": "uint256",
							"name": "",
							"type": "uint256"
						}
					],
					"stateMutability": "view",
					"type": "function"
				},
				{
					"inputs": [],
					"name": "getWinner",
					"outputs": [
						{
							"internalType": "address",
							"name": "",
							"type": "address"
						}
					],
					"stateMutability": "nonpayable",
					"type": "function"
				},
				{
					"inputs": [],
					"name": "isGameFinished",
					"outputs": [
						{
							"internalType": "bool",
							"name": "",
							"type": "bool"
						}
					],
					"stateMutability": "nonpayable",
					"type": "function"
				}
			],
			"devdoc": {
				"kind": "dev",
				"methods": {},
				"version": 1
			},
			"evm": {
				"assembly": "    /* \"contracts/GameContract.sol\":62:955  contract GameContract {... */\n  mstore(0x40, 0x80)\n    /* \"contracts/GameContract.sol\":208:334  constructor(address[] memory _players) {... */\n  callvalue\n  dup1\n  iszero\n  tag_1\n  jumpi\n  0x00\n  dup1\n  revert\ntag_1:\n  pop\n  mload(0x40)\n  sub(codesize, bytecodeSize)\n  dup1\n  bytecodeSize\n  dup4\n  codecopy\n  dup2\n  dup2\n  add\n  0x40\n  mstore\n  dup2\n  add\n  swap1\n  tag_2\n  swap2\n  swap1\n  tag_3\n  jump\t// in\ntag_2:\n    /* \"contracts/GameContract.sol\":268:276  _players */\n  dup1\n    /* \"contracts/GameContract.sol\":258:265  players */\n  0x00\n    /* \"contracts/GameContract.sol\":258:276  players = _players */\n  swap1\n  dup1\n  mload\n  swap1\n  0x20\n  add\n  swap1\n  tag_6\n  swap3\n  swap2\n  swap1\n  tag_7\n  jump\t// in\ntag_6:\n  pop\n    /* \"contracts/GameContract.sol\":311:326  block.timestamp */\n  timestamp\n    /* \"contracts/GameContract.sol\":287:308  gameContractStartTime */\n  0x01\n    /* \"contracts/GameContract.sol\":287:326  gameContractStartTime = block.timestamp */\n  dup2\n  swap1\n  sstore\n  pop\n    /* \"contracts/GameContract.sol\":208:334  constructor(address[] memory _players) {... */\n  pop\n    /* \"contracts/GameContract.sol\":62:955  contract GameContract {... */\n  jump(tag_8)\ntag_7:\n  dup3\n  dup1\n  sload\n  dup3\n  dup3\n  sstore\n  swap1\n  0x00\n  mstore\n  keccak256(0x00, 0x20)\n  swap1\n  dup2\n  add\n  swap3\n  dup3\n  iszero\n  tag_9\n  jumpi\n  swap2\n  0x20\n  mul\n  dup3\n  add\ntag_10:\n  dup3\n  dup2\n  gt\n  iszero\n  tag_11\n  jumpi\n  dup3\n  mload\n  dup3\n  exp(0x0100, 0x00)\n  dup2\n  sload\n  dup2\n  0xffffffffffffffffffffffffffffffffffffffff\n  mul\n  not\n  and\n  swap1\n  dup4\n  0xffffffffffffffffffffffffffffffffffffffff\n  and\n  mul\n  or\n  swap1\n  sstore\n  pop\n  swap2\n  0x20\n  add\n  swap2\n  swap1\n  0x01\n  add\n  swap1\n  jump(tag_10)\ntag_11:\ntag_9:\n  pop\n  swap1\n  pop\n  tag_12\n  swap2\n  swap1\n  tag_13\n  jump\t// in\ntag_12:\n  pop\n  swap1\n  jump\t// out\ntag_13:\ntag_14:\n  dup1\n  dup3\n  gt\n  iszero\n  tag_15\n  jumpi\n  0x00\n  dup2\n  0x00\n  swap1\n  sstore\n  pop\n  0x01\n  add\n  jump(tag_14)\ntag_15:\n  pop\n  swap1\n  jump\t// out\n    /* \"#utility.yul\":7:82   */\ntag_16:\n    /* \"#utility.yul\":40:46   */\n  0x00\n    /* \"#utility.yul\":73:75   */\n  0x40\n    /* \"#utility.yul\":67:76   */\n  mload\n    /* \"#utility.yul\":57:76   */\n  swap1\n  pop\n    /* \"#utility.yul\":7:82   */\n  swap1\n  jump\t// out\n    /* \"#utility.yul\":88:205   */\ntag_17:\n    /* \"#utility.yul\":197:198   */\n  0x00\n    /* \"#utility.yul\":194:195   */\n  dup1\n    /* \"#utility.yul\":187:199   */\n  revert\n    /* \"#utility.yul\":211:328   */\ntag_18:\n    /* \"#utility.yul\":320:321   */\n  0x00\n    /* \"#utility.yul\":317:318   */\n  dup1\n    /* \"#utility.yul\":310:322   */\n  revert\n    /* \"#utility.yul\":334:451   */\ntag_19:\n    /* \"#utility.yul\":443:444   */\n  0x00\n    /* \"#utility.yul\":440:441   */\n  dup1\n    /* \"#utility.yul\":433:445   */\n  revert\n    /* \"#utility.yul\":457:559   */\ntag_20:\n    /* \"#utility.yul\":498:504   */\n  0x00\n    /* \"#utility.yul\":549:551   */\n  0x1f\n    /* \"#utility.yul\":545:552   */\n  not\n    /* \"#utility.yul\":540:542   */\n  0x1f\n    /* \"#utility.yul\":533:538   */\n  dup4\n    /* \"#utility.yul\":529:543   */\n  add\n    /* \"#utility.yul\":525:553   */\n  and\n    /* \"#utility.yul\":515:553   */\n  swap1\n  pop\n    /* \"#utility.yul\":457:559   */\n  swap2\n  swap1\n  pop\n  jump\t// out\n    /* \"#utility.yul\":565:745   */\ntag_21:\n    /* \"#utility.yul\":613:690   */\n  0x4e487b7100000000000000000000000000000000000000000000000000000000\n    /* \"#utility.yul\":610:611   */\n  0x00\n    /* \"#utility.yul\":603:691   */\n  mstore\n    /* \"#utility.yul\":710:714   */\n  0x41\n    /* \"#utility.yul\":707:708   */\n  0x04\n    /* \"#utility.yul\":700:715   */\n  mstore\n    /* \"#utility.yul\":734:738   */\n  0x24\n    /* \"#utility.yul\":731:732   */\n  0x00\n    /* \"#utility.yul\":724:739   */\n  revert\n    /* \"#utility.yul\":751:1032   */\ntag_22:\n    /* \"#utility.yul\":834:861   */\n  tag_40\n    /* \"#utility.yul\":856:860   */\n  dup3\n    /* \"#utility.yul\":834:861   */\n  tag_20\n  jump\t// in\ntag_40:\n    /* \"#utility.yul\":826:832   */\n  dup2\n    /* \"#utility.yul\":822:862   */\n  add\n    /* \"#utility.yul\":964:970   */\n  dup2\n    /* \"#utility.yul\":952:962   */\n  dup2\n    /* \"#utility.yul\":949:971   */\n  lt\n    /* \"#utility.yul\":928:946   */\n  0xffffffffffffffff\n    /* \"#utility.yul\":916:926   */\n  dup3\n    /* \"#utility.yul\":913:947   */\n  gt\n    /* \"#utility.yul\":910:972   */\n  or\n    /* \"#utility.yul\":907:995   */\n  iszero\n  tag_41\n  jumpi\n    /* \"#utility.yul\":975:993   */\n  tag_42\n  tag_21\n  jump\t// in\ntag_42:\n    /* \"#utility.yul\":907:995   */\ntag_41:\n    /* \"#utility.yul\":1015:1025   */\n  dup1\n    /* \"#utility.yul\":1011:1013   */\n  0x40\n    /* \"#utility.yul\":1004:1026   */\n  mstore\n    /* \"#utility.yul\":794:1032   */\n  pop\n    /* \"#utility.yul\":751:1032   */\n  pop\n  pop\n  jump\t// out\n    /* \"#utility.yul\":1038:1167   */\ntag_23:\n    /* \"#utility.yul\":1072:1078   */\n  0x00\n    /* \"#utility.yul\":1099:1119   */\n  tag_44\n  tag_16\n  jump\t// in\ntag_44:\n    /* \"#utility.yul\":1089:1119   */\n  swap1\n  pop\n    /* \"#utility.yul\":1128:1161   */\n  tag_45\n    /* \"#utility.yul\":1156:1160   */\n  dup3\n    /* \"#utility.yul\":1148:1154   */\n  dup3\n    /* \"#utility.yul\":1128:1161   */\n  tag_22\n  jump\t// in\ntag_45:\n    /* \"#utility.yul\":1038:1167   */\n  swap2\n  swap1\n  pop\n  jump\t// out\n    /* \"#utility.yul\":1173:1484   */\ntag_24:\n    /* \"#utility.yul\":1250:1254   */\n  0x00\n    /* \"#utility.yul\":1340:1358   */\n  0xffffffffffffffff\n    /* \"#utility.yul\":1332:1338   */\n  dup3\n    /* \"#utility.yul\":1329:1359   */\n  gt\n    /* \"#utility.yul\":1326:1382   */\n  iszero\n  tag_47\n  jumpi\n    /* \"#utility.yul\":1362:1380   */\n  tag_48\n  tag_21\n  jump\t// in\ntag_48:\n    /* \"#utility.yul\":1326:1382   */\ntag_47:\n    /* \"#utility.yul\":1412:1416   */\n  0x20\n    /* \"#utility.yul\":1404:1410   */\n  dup3\n    /* \"#utility.yul\":1400:1417   */\n  mul\n    /* \"#utility.yul\":1392:1417   */\n  swap1\n  pop\n    /* \"#utility.yul\":1472:1476   */\n  0x20\n    /* \"#utility.yul\":1466:1470   */\n  dup2\n    /* \"#utility.yul\":1462:1477   */\n  add\n    /* \"#utility.yul\":1454:1477   */\n  swap1\n  pop\n    /* \"#utility.yul\":1173:1484   */\n  swap2\n  swap1\n  pop\n  jump\t// out\n    /* \"#utility.yul\":1490:1607   */\ntag_25:\n    /* \"#utility.yul\":1599:1600   */\n  0x00\n    /* \"#utility.yul\":1596:1597   */\n  dup1\n    /* \"#utility.yul\":1589:1601   */\n  revert\n    /* \"#utility.yul\":1613:1739   */\ntag_26:\n    /* \"#utility.yul\":1650:1657   */\n  0x00\n    /* \"#utility.yul\":1690:1732   */\n  0xffffffffffffffffffffffffffffffffffffffff\n    /* \"#utility.yul\":1683:1688   */\n  dup3\n    /* \"#utility.yul\":1679:1733   */\n  and\n    /* \"#utility.yul\":1668:1733   */\n  swap1\n  pop\n    /* \"#utility.yul\":1613:1739   */\n  swap2\n  swap1\n  pop\n  jump\t// out\n    /* \"#utility.yul\":1745:1841   */\ntag_27:\n    /* \"#utility.yul\":1782:1789   */\n  0x00\n    /* \"#utility.yul\":1811:1835   */\n  tag_52\n    /* \"#utility.yul\":1829:1834   */\n  dup3\n    /* \"#utility.yul\":1811:1835   */\n  tag_26\n  jump\t// in\ntag_52:\n    /* \"#utility.yul\":1800:1835   */\n  swap1\n  pop\n    /* \"#utility.yul\":1745:1841   */\n  swap2\n  swap1\n  pop\n  jump\t// out\n    /* \"#utility.yul\":1847:1969   */\ntag_28:\n    /* \"#utility.yul\":1920:1944   */\n  tag_54\n    /* \"#utility.yul\":1938:1943   */\n  dup2\n    /* \"#utility.yul\":1920:1944   */\n  tag_27\n  jump\t// in\ntag_54:\n    /* \"#utility.yul\":1913:1918   */\n  dup2\n    /* \"#utility.yul\":1910:1945   */\n  eq\n    /* \"#utility.yul\":1900:1963   */\n  tag_55\n  jumpi\n    /* \"#utility.yul\":1959:1960   */\n  0x00\n    /* \"#utility.yul\":1956:1957   */\n  dup1\n    /* \"#utility.yul\":1949:1961   */\n  revert\n    /* \"#utility.yul\":1900:1963   */\ntag_55:\n    /* \"#utility.yul\":1847:1969   */\n  pop\n  jump\t// out\n    /* \"#utility.yul\":1975:2118   */\ntag_29:\n    /* \"#utility.yul\":2032:2037   */\n  0x00\n    /* \"#utility.yul\":2063:2069   */\n  dup2\n    /* \"#utility.yul\":2057:2070   */\n  mload\n    /* \"#utility.yul\":2048:2070   */\n  swap1\n  pop\n    /* \"#utility.yul\":2079:2112   */\n  tag_57\n    /* \"#utility.yul\":2106:2111   */\n  dup2\n    /* \"#utility.yul\":2079:2112   */\n  tag_28\n  jump\t// in\ntag_57:\n    /* \"#utility.yul\":1975:2118   */\n  swap3\n  swap2\n  pop\n  pop\n  jump\t// out\n    /* \"#utility.yul\":2141:2873   */\ntag_30:\n    /* \"#utility.yul\":2248:2253   */\n  0x00\n    /* \"#utility.yul\":2273:2354   */\n  tag_59\n    /* \"#utility.yul\":2289:2353   */\n  tag_60\n    /* \"#utility.yul\":2346:2352   */\n  dup5\n    /* \"#utility.yul\":2289:2353   */\n  tag_24\n  jump\t// in\ntag_60:\n    /* \"#utility.yul\":2273:2354   */\n  tag_23\n  jump\t// in\ntag_59:\n    /* \"#utility.yul\":2264:2354   */\n  swap1\n  pop\n    /* \"#utility.yul\":2374:2379   */\n  dup1\n    /* \"#utility.yul\":2403:2409   */\n  dup4\n    /* \"#utility.yul\":2396:2401   */\n  dup3\n    /* \"#utility.yul\":2389:2410   */\n  mstore\n    /* \"#utility.yul\":2437:2441   */\n  0x20\n    /* \"#utility.yul\":2430:2435   */\n  dup3\n    /* \"#utility.yul\":2426:2442   */\n  add\n    /* \"#utility.yul\":2419:2442   */\n  swap1\n  pop\n    /* \"#utility.yul\":2490:2494   */\n  0x20\n    /* \"#utility.yul\":2482:2488   */\n  dup5\n    /* \"#utility.yul\":2478:2495   */\n  mul\n    /* \"#utility.yul\":2470:2476   */\n  dup4\n    /* \"#utility.yul\":2466:2496   */\n  add\n    /* \"#utility.yul\":2519:2522   */\n  dup6\n    /* \"#utility.yul\":2511:2517   */\n  dup2\n    /* \"#utility.yul\":2508:2523   */\n  gt\n    /* \"#utility.yul\":2505:2627   */\n  iszero\n  tag_61\n  jumpi\n    /* \"#utility.yul\":2538:2617   */\n  tag_62\n  tag_25\n  jump\t// in\ntag_62:\n    /* \"#utility.yul\":2505:2627   */\ntag_61:\n    /* \"#utility.yul\":2653:2659   */\n  dup4\n    /* \"#utility.yul\":2636:2867   */\ntag_63:\n    /* \"#utility.yul\":2670:2676   */\n  dup2\n    /* \"#utility.yul\":2665:2668   */\n  dup2\n    /* \"#utility.yul\":2662:2677   */\n  lt\n    /* \"#utility.yul\":2636:2867   */\n  iszero\n  tag_65\n  jumpi\n    /* \"#utility.yul\":2745:2748   */\n  dup1\n    /* \"#utility.yul\":2774:2822   */\n  tag_66\n    /* \"#utility.yul\":2818:2821   */\n  dup9\n    /* \"#utility.yul\":2806:2816   */\n  dup3\n    /* \"#utility.yul\":2774:2822   */\n  tag_29\n  jump\t// in\ntag_66:\n    /* \"#utility.yul\":2769:2772   */\n  dup5\n    /* \"#utility.yul\":2762:2823   */\n  mstore\n    /* \"#utility.yul\":2852:2856   */\n  0x20\n    /* \"#utility.yul\":2847:2850   */\n  dup5\n    /* \"#utility.yul\":2843:2857   */\n  add\n    /* \"#utility.yul\":2836:2857   */\n  swap4\n  pop\n    /* \"#utility.yul\":2712:2867   */\n  pop\n    /* \"#utility.yul\":2696:2700   */\n  0x20\n    /* \"#utility.yul\":2691:2694   */\n  dup2\n    /* \"#utility.yul\":2687:2701   */\n  add\n    /* \"#utility.yul\":2680:2701   */\n  swap1\n  pop\n    /* \"#utility.yul\":2636:2867   */\n  jump(tag_63)\ntag_65:\n    /* \"#utility.yul\":2640:2661   */\n  pop\n    /* \"#utility.yul\":2254:2873   */\n  pop\n  pop\n    /* \"#utility.yul\":2141:2873   */\n  swap4\n  swap3\n  pop\n  pop\n  pop\n  jump\t// out\n    /* \"#utility.yul\":2896:3281   */\ntag_31:\n    /* \"#utility.yul\":2978:2983   */\n  0x00\n    /* \"#utility.yul\":3027:3030   */\n  dup3\n    /* \"#utility.yul\":3020:3024   */\n  0x1f\n    /* \"#utility.yul\":3012:3018   */\n  dup4\n    /* \"#utility.yul\":3008:3025   */\n  add\n    /* \"#utility.yul\":3004:3031   */\n  slt\n    /* \"#utility.yul\":2994:3116   */\n  tag_68\n  jumpi\n    /* \"#utility.yul\":3035:3114   */\n  tag_69\n  tag_19\n  jump\t// in\ntag_69:\n    /* \"#utility.yul\":2994:3116   */\ntag_68:\n    /* \"#utility.yul\":3145:3151   */\n  dup2\n    /* \"#utility.yul\":3139:3152   */\n  mload\n    /* \"#utility.yul\":3170:3275   */\n  tag_70\n    /* \"#utility.yul\":3271:3274   */\n  dup5\n    /* \"#utility.yul\":3263:3269   */\n  dup3\n    /* \"#utility.yul\":3256:3260   */\n  0x20\n    /* \"#utility.yul\":3248:3254   */\n  dup7\n    /* \"#utility.yul\":3244:3261   */\n  add\n    /* \"#utility.yul\":3170:3275   */\n  tag_30\n  jump\t// in\ntag_70:\n    /* \"#utility.yul\":3161:3275   */\n  swap2\n  pop\n    /* \"#utility.yul\":2984:3281   */\n  pop\n    /* \"#utility.yul\":2896:3281   */\n  swap3\n  swap2\n  pop\n  pop\n  jump\t// out\n    /* \"#utility.yul\":3287:3841   */\ntag_3:\n    /* \"#utility.yul\":3382:3388   */\n  0x00\n    /* \"#utility.yul\":3431:3433   */\n  0x20\n    /* \"#utility.yul\":3419:3428   */\n  dup3\n    /* \"#utility.yul\":3410:3417   */\n  dup5\n    /* \"#utility.yul\":3406:3429   */\n  sub\n    /* \"#utility.yul\":3402:3434   */\n  slt\n    /* \"#utility.yul\":3399:3518   */\n  iszero\n  tag_72\n  jumpi\n    /* \"#utility.yul\":3437:3516   */\n  tag_73\n  tag_17\n  jump\t// in\ntag_73:\n    /* \"#utility.yul\":3399:3518   */\ntag_72:\n    /* \"#utility.yul\":3578:3579   */\n  0x00\n    /* \"#utility.yul\":3567:3576   */\n  dup3\n    /* \"#utility.yul\":3563:3580   */\n  add\n    /* \"#utility.yul\":3557:3581   */\n  mload\n    /* \"#utility.yul\":3608:3626   */\n  0xffffffffffffffff\n    /* \"#utility.yul\":3600:3606   */\n  dup2\n    /* \"#utility.yul\":3597:3627   */\n  gt\n    /* \"#utility.yul\":3594:3711   */\n  iszero\n  tag_74\n  jumpi\n    /* \"#utility.yul\":3630:3709   */\n  tag_75\n  tag_18\n  jump\t// in\ntag_75:\n    /* \"#utility.yul\":3594:3711   */\ntag_74:\n    /* \"#utility.yul\":3735:3824   */\n  tag_76\n    /* \"#utility.yul\":3816:3823   */\n  dup5\n    /* \"#utility.yul\":3807:3813   */\n  dup3\n    /* \"#utility.yul\":3796:3805   */\n  dup6\n    /* \"#utility.yul\":3792:3814   */\n  add\n    /* \"#utility.yul\":3735:3824   */\n  tag_31\n  jump\t// in\ntag_76:\n    /* \"#utility.yul\":3725:3824   */\n  swap2\n  pop\n    /* \"#utility.yul\":3528:3834   */\n  pop\n    /* \"#utility.yul\":3287:3841   */\n  swap3\n  swap2\n  pop\n  pop\n  jump\t// out\n    /* \"contracts/GameContract.sol\":62:955  contract GameContract {... */\ntag_8:\n  dataSize(sub_0)\n  dup1\n  dataOffset(sub_0)\n  0x00\n  codecopy\n  0x00\n  return\nstop\n\nsub_0: assembly {\n        /* \"contracts/GameContract.sol\":62:955  contract GameContract {... */\n      mstore(0x40, 0x80)\n      callvalue\n      dup1\n      iszero\n      tag_1\n      jumpi\n      0x00\n      dup1\n      revert\n    tag_1:\n      pop\n      jumpi(tag_2, lt(calldatasize, 0x04))\n      shr(0xe0, calldataload(0x00))\n      dup1\n      0x47ebf387\n      eq\n      tag_3\n      jumpi\n      dup1\n      0x8e7ea5b2\n      eq\n      tag_4\n      jumpi\n      dup1\n      0xa74bfc92\n      eq\n      tag_5\n      jumpi\n      dup1\n      0xef890cc8\n      eq\n      tag_6\n      jumpi\n    tag_2:\n      0x00\n      dup1\n      revert\n        /* \"contracts/GameContract.sol\":117:150  uint public gameContractStartTime */\n    tag_3:\n      tag_7\n      tag_8\n      jump\t// in\n    tag_7:\n      mload(0x40)\n      tag_9\n      swap2\n      swap1\n      tag_10\n      jump\t// in\n    tag_9:\n      mload(0x40)\n      dup1\n      swap2\n      sub\n      swap1\n      return\n        /* \"contracts/GameContract.sol\":464:560  function getWinner() external gameFinished returns(address) {... */\n    tag_4:\n      tag_11\n      tag_12\n      jump\t// in\n    tag_11:\n      mload(0x40)\n      tag_13\n      swap2\n      swap1\n      tag_14\n      jump\t// in\n    tag_13:\n      mload(0x40)\n      dup1\n      swap2\n      sub\n      swap1\n      return\n        /* \"contracts/GameContract.sol\":708:952  function containsPlayer(address player) external returns(bool) {... */\n    tag_5:\n      tag_15\n      0x04\n      dup1\n      calldatasize\n      sub\n      dup2\n      add\n      swap1\n      tag_16\n      swap2\n      swap1\n      tag_17\n      jump\t// in\n    tag_16:\n      tag_18\n      jump\t// in\n    tag_15:\n      mload(0x40)\n      tag_19\n      swap2\n      swap1\n      tag_20\n      jump\t// in\n    tag_19:\n      mload(0x40)\n      dup1\n      swap2\n      sub\n      swap1\n      return\n        /* \"contracts/GameContract.sol\":568:700  function isGameFinished() external returns(bool) {... */\n    tag_6:\n      tag_21\n      tag_22\n      jump\t// in\n    tag_21:\n      mload(0x40)\n      tag_23\n      swap2\n      swap1\n      tag_20\n      jump\t// in\n    tag_23:\n      mload(0x40)\n      dup1\n      swap2\n      sub\n      swap1\n      return\n        /* \"contracts/GameContract.sol\":117:150  uint public gameContractStartTime */\n    tag_8:\n      sload(0x01)\n      dup2\n      jump\t// out\n        /* \"contracts/GameContract.sol\":464:560  function getWinner() external gameFinished returns(address) {... */\n    tag_12:\n        /* \"contracts/GameContract.sol\":515:522  address */\n      0x00\n        /* \"contracts/GameContract.sol\":385:389  this */\n      address\n        /* \"contracts/GameContract.sol\":385:404  this.isGameFinished */\n      0xffffffffffffffffffffffffffffffffffffffff\n      and\n      0xef890cc8\n        /* \"contracts/GameContract.sol\":385:406  this.isGameFinished() */\n      mload(0x40)\n      dup2\n      0xffffffff\n      and\n      0xe0\n      shl\n      dup2\n      mstore\n      0x04\n      add\n      0x20\n      mload(0x40)\n      dup1\n      dup4\n      sub\n      dup2\n      0x00\n      dup8\n      gas\n      call\n      iszero\n      dup1\n      iszero\n      tag_26\n      jumpi\n      returndatasize\n      0x00\n      dup1\n      returndatacopy\n      revert(0x00, returndatasize)\n    tag_26:\n      pop\n      pop\n      pop\n      pop\n      mload(0x40)\n      returndatasize\n      not(0x1f)\n      0x1f\n      dup3\n      add\n      and\n      dup3\n      add\n      dup1\n      0x40\n      mstore\n      pop\n      dup2\n      add\n      swap1\n      tag_27\n      swap2\n      swap1\n      tag_28\n      jump\t// in\n    tag_27:\n        /* \"contracts/GameContract.sol\":377:436  require(this.isGameFinished(), \"Game is not finished yet!\") */\n      tag_29\n      jumpi\n      mload(0x40)\n      0x08c379a000000000000000000000000000000000000000000000000000000000\n      dup2\n      mstore\n      0x04\n      add\n      tag_30\n      swap1\n      tag_31\n      jump\t// in\n    tag_30:\n      mload(0x40)\n      dup1\n      swap2\n      sub\n      swap1\n      revert\n    tag_29:\n        /* \"contracts/GameContract.sol\":542:549  players */\n      0x00\n        /* \"contracts/GameContract.sol\":550:551  0 */\n      dup1\n        /* \"contracts/GameContract.sol\":542:552  players[0] */\n      dup2\n      sload\n      dup2\n      lt\n      tag_33\n      jumpi\n      tag_34\n      tag_35\n      jump\t// in\n    tag_34:\n    tag_33:\n      swap1\n      0x00\n      mstore\n      keccak256(0x00, 0x20)\n      add\n      0x00\n      swap1\n      sload\n      swap1\n      0x0100\n      exp\n      swap1\n      div\n      0xffffffffffffffffffffffffffffffffffffffff\n      and\n        /* \"contracts/GameContract.sol\":535:552  return players[0] */\n      swap1\n      pop\n        /* \"contracts/GameContract.sol\":464:560  function getWinner() external gameFinished returns(address) {... */\n      swap1\n      jump\t// out\n        /* \"contracts/GameContract.sol\":708:952  function containsPlayer(address player) external returns(bool) {... */\n    tag_18:\n        /* \"contracts/GameContract.sol\":765:769  bool */\n      0x00\n        /* \"contracts/GameContract.sol\":787:793  uint i */\n      dup1\n        /* \"contracts/GameContract.sol\":796:797  0 */\n      0x00\n        /* \"contracts/GameContract.sol\":787:797  uint i = 0 */\n      swap1\n      pop\n        /* \"contracts/GameContract.sol\":782:922  for (uint i = 0; i < players.length; i++) {... */\n    tag_38:\n        /* \"contracts/GameContract.sol\":803:810  players */\n      0x00\n        /* \"contracts/GameContract.sol\":803:817  players.length */\n      dup1\n      sload\n      swap1\n      pop\n        /* \"contracts/GameContract.sol\":799:800  i */\n      dup2\n        /* \"contracts/GameContract.sol\":799:817  i < players.length */\n      lt\n        /* \"contracts/GameContract.sol\":782:922  for (uint i = 0; i < players.length; i++) {... */\n      iszero\n      tag_39\n      jumpi\n        /* \"contracts/GameContract.sol\":857:863  player */\n      dup3\n        /* \"contracts/GameContract.sol\":843:863  players[i] == player */\n      0xffffffffffffffffffffffffffffffffffffffff\n      and\n        /* \"contracts/GameContract.sol\":843:850  players */\n      0x00\n        /* \"contracts/GameContract.sol\":851:852  i */\n      dup3\n        /* \"contracts/GameContract.sol\":843:853  players[i] */\n      dup2\n      sload\n      dup2\n      lt\n      tag_41\n      jumpi\n      tag_42\n      tag_35\n      jump\t// in\n    tag_42:\n    tag_41:\n      swap1\n      0x00\n      mstore\n      keccak256(0x00, 0x20)\n      add\n      0x00\n      swap1\n      sload\n      swap1\n      0x0100\n      exp\n      swap1\n      div\n      0xffffffffffffffffffffffffffffffffffffffff\n      and\n        /* \"contracts/GameContract.sol\":843:863  players[i] == player */\n      0xffffffffffffffffffffffffffffffffffffffff\n      and\n      sub\n        /* \"contracts/GameContract.sol\":839:911  if (players[i] == player) {... */\n      tag_44\n      jumpi\n        /* \"contracts/GameContract.sol\":891:895  true */\n      0x01\n        /* \"contracts/GameContract.sol\":884:895  return true */\n      swap2\n      pop\n      pop\n      jump(tag_37)\n        /* \"contracts/GameContract.sol\":839:911  if (players[i] == player) {... */\n    tag_44:\n        /* \"contracts/GameContract.sol\":819:822  i++ */\n      dup1\n      dup1\n      tag_45\n      swap1\n      tag_46\n      jump\t// in\n    tag_45:\n      swap2\n      pop\n      pop\n        /* \"contracts/GameContract.sol\":782:922  for (uint i = 0; i < players.length; i++) {... */\n      jump(tag_38)\n    tag_39:\n      pop\n        /* \"contracts/GameContract.sol\":939:944  false */\n      0x00\n        /* \"contracts/GameContract.sol\":932:944  return false */\n      swap1\n      pop\n        /* \"contracts/GameContract.sol\":708:952  function containsPlayer(address player) external returns(bool) {... */\n    tag_37:\n      swap2\n      swap1\n      pop\n      jump\t// out\n        /* \"contracts/GameContract.sol\":568:700  function isGameFinished() external returns(bool) {... */\n    tag_22:\n        /* \"contracts/GameContract.sol\":611:615  bool */\n      0x00\n        /* \"contracts/GameContract.sol\":197:199  10 */\n      0x0a\n        /* \"contracts/GameContract.sol\":653:674  gameContractStartTime */\n      sload(0x01)\n        /* \"contracts/GameContract.sol\":653:692  gameContractStartTime + VOTING_DURATION */\n      tag_48\n      swap2\n      swap1\n      tag_49\n      jump\t// in\n    tag_48:\n        /* \"contracts/GameContract.sol\":635:650  block.timestamp */\n      timestamp\n        /* \"contracts/GameContract.sol\":635:692  block.timestamp > gameContractStartTime + VOTING_DURATION */\n      gt\n        /* \"contracts/GameContract.sol\":628:692  return block.timestamp > gameContractStartTime + VOTING_DURATION */\n      swap1\n      pop\n        /* \"contracts/GameContract.sol\":568:700  function isGameFinished() external returns(bool) {... */\n      swap1\n      jump\t// out\n        /* \"#utility.yul\":7:84   */\n    tag_50:\n        /* \"#utility.yul\":44:51   */\n      0x00\n        /* \"#utility.yul\":73:78   */\n      dup2\n        /* \"#utility.yul\":62:78   */\n      swap1\n      pop\n        /* \"#utility.yul\":7:84   */\n      swap2\n      swap1\n      pop\n      jump\t// out\n        /* \"#utility.yul\":90:208   */\n    tag_51:\n        /* \"#utility.yul\":177:201   */\n      tag_71\n        /* \"#utility.yul\":195:200   */\n      dup2\n        /* \"#utility.yul\":177:201   */\n      tag_50\n      jump\t// in\n    tag_71:\n        /* \"#utility.yul\":172:175   */\n      dup3\n        /* \"#utility.yul\":165:202   */\n      mstore\n        /* \"#utility.yul\":90:208   */\n      pop\n      pop\n      jump\t// out\n        /* \"#utility.yul\":214:436   */\n    tag_10:\n        /* \"#utility.yul\":307:311   */\n      0x00\n        /* \"#utility.yul\":345:347   */\n      0x20\n        /* \"#utility.yul\":334:343   */\n      dup3\n        /* \"#utility.yul\":330:348   */\n      add\n        /* \"#utility.yul\":322:348   */\n      swap1\n      pop\n        /* \"#utility.yul\":358:429   */\n      tag_73\n        /* \"#utility.yul\":426:427   */\n      0x00\n        /* \"#utility.yul\":415:424   */\n      dup4\n        /* \"#utility.yul\":411:428   */\n      add\n        /* \"#utility.yul\":402:408   */\n      dup5\n        /* \"#utility.yul\":358:429   */\n      tag_51\n      jump\t// in\n    tag_73:\n        /* \"#utility.yul\":214:436   */\n      swap3\n      swap2\n      pop\n      pop\n      jump\t// out\n        /* \"#utility.yul\":442:568   */\n    tag_52:\n        /* \"#utility.yul\":479:486   */\n      0x00\n        /* \"#utility.yul\":519:561   */\n      0xffffffffffffffffffffffffffffffffffffffff\n        /* \"#utility.yul\":512:517   */\n      dup3\n        /* \"#utility.yul\":508:562   */\n      and\n        /* \"#utility.yul\":497:562   */\n      swap1\n      pop\n        /* \"#utility.yul\":442:568   */\n      swap2\n      swap1\n      pop\n      jump\t// out\n        /* \"#utility.yul\":574:670   */\n    tag_53:\n        /* \"#utility.yul\":611:618   */\n      0x00\n        /* \"#utility.yul\":640:664   */\n      tag_76\n        /* \"#utility.yul\":658:663   */\n      dup3\n        /* \"#utility.yul\":640:664   */\n      tag_52\n      jump\t// in\n    tag_76:\n        /* \"#utility.yul\":629:664   */\n      swap1\n      pop\n        /* \"#utility.yul\":574:670   */\n      swap2\n      swap1\n      pop\n      jump\t// out\n        /* \"#utility.yul\":676:794   */\n    tag_54:\n        /* \"#utility.yul\":763:787   */\n      tag_78\n        /* \"#utility.yul\":781:786   */\n      dup2\n        /* \"#utility.yul\":763:787   */\n      tag_53\n      jump\t// in\n    tag_78:\n        /* \"#utility.yul\":758:761   */\n      dup3\n        /* \"#utility.yul\":751:788   */\n      mstore\n        /* \"#utility.yul\":676:794   */\n      pop\n      pop\n      jump\t// out\n        /* \"#utility.yul\":800:1022   */\n    tag_14:\n        /* \"#utility.yul\":893:897   */\n      0x00\n        /* \"#utility.yul\":931:933   */\n      0x20\n        /* \"#utility.yul\":920:929   */\n      dup3\n        /* \"#utility.yul\":916:934   */\n      add\n        /* \"#utility.yul\":908:934   */\n      swap1\n      pop\n        /* \"#utility.yul\":944:1015   */\n      tag_80\n        /* \"#utility.yul\":1012:1013   */\n      0x00\n        /* \"#utility.yul\":1001:1010   */\n      dup4\n        /* \"#utility.yul\":997:1014   */\n      add\n        /* \"#utility.yul\":988:994   */\n      dup5\n        /* \"#utility.yul\":944:1015   */\n      tag_54\n      jump\t// in\n    tag_80:\n        /* \"#utility.yul\":800:1022   */\n      swap3\n      swap2\n      pop\n      pop\n      jump\t// out\n        /* \"#utility.yul\":1109:1226   */\n    tag_56:\n        /* \"#utility.yul\":1218:1219   */\n      0x00\n        /* \"#utility.yul\":1215:1216   */\n      dup1\n        /* \"#utility.yul\":1208:1220   */\n      revert\n        /* \"#utility.yul\":1355:1477   */\n    tag_58:\n        /* \"#utility.yul\":1428:1452   */\n      tag_85\n        /* \"#utility.yul\":1446:1451   */\n      dup2\n        /* \"#utility.yul\":1428:1452   */\n      tag_53\n      jump\t// in\n    tag_85:\n        /* \"#utility.yul\":1421:1426   */\n      dup2\n        /* \"#utility.yul\":1418:1453   */\n      eq\n        /* \"#utility.yul\":1408:1471   */\n      tag_86\n      jumpi\n        /* \"#utility.yul\":1467:1468   */\n      0x00\n        /* \"#utility.yul\":1464:1465   */\n      dup1\n        /* \"#utility.yul\":1457:1469   */\n      revert\n        /* \"#utility.yul\":1408:1471   */\n    tag_86:\n        /* \"#utility.yul\":1355:1477   */\n      pop\n      jump\t// out\n        /* \"#utility.yul\":1483:1622   */\n    tag_59:\n        /* \"#utility.yul\":1529:1534   */\n      0x00\n        /* \"#utility.yul\":1567:1573   */\n      dup2\n        /* \"#utility.yul\":1554:1574   */\n      calldataload\n        /* \"#utility.yul\":1545:1574   */\n      swap1\n      pop\n        /* \"#utility.yul\":1583:1616   */\n      tag_88\n        /* \"#utility.yul\":1610:1615   */\n      dup2\n        /* \"#utility.yul\":1583:1616   */\n      tag_58\n      jump\t// in\n    tag_88:\n        /* \"#utility.yul\":1483:1622   */\n      swap3\n      swap2\n      pop\n      pop\n      jump\t// out\n        /* \"#utility.yul\":1628:1957   */\n    tag_17:\n        /* \"#utility.yul\":1687:1693   */\n      0x00\n        /* \"#utility.yul\":1736:1738   */\n      0x20\n        /* \"#utility.yul\":1724:1733   */\n      dup3\n        /* \"#utility.yul\":1715:1722   */\n      dup5\n        /* \"#utility.yul\":1711:1734   */\n      sub\n        /* \"#utility.yul\":1707:1739   */\n      slt\n        /* \"#utility.yul\":1704:1823   */\n      iszero\n      tag_90\n      jumpi\n        /* \"#utility.yul\":1742:1821   */\n      tag_91\n      tag_56\n      jump\t// in\n    tag_91:\n        /* \"#utility.yul\":1704:1823   */\n    tag_90:\n        /* \"#utility.yul\":1862:1863   */\n      0x00\n        /* \"#utility.yul\":1887:1940   */\n      tag_92\n        /* \"#utility.yul\":1932:1939   */\n      dup5\n        /* \"#utility.yul\":1923:1929   */\n      dup3\n        /* \"#utility.yul\":1912:1921   */\n      dup6\n        /* \"#utility.yul\":1908:1930   */\n      add\n        /* \"#utility.yul\":1887:1940   */\n      tag_59\n      jump\t// in\n    tag_92:\n        /* \"#utility.yul\":1877:1940   */\n      swap2\n      pop\n        /* \"#utility.yul\":1833:1950   */\n      pop\n        /* \"#utility.yul\":1628:1957   */\n      swap3\n      swap2\n      pop\n      pop\n      jump\t// out\n        /* \"#utility.yul\":1963:2053   */\n    tag_60:\n        /* \"#utility.yul\":1997:2004   */\n      0x00\n        /* \"#utility.yul\":2040:2045   */\n      dup2\n        /* \"#utility.yul\":2033:2046   */\n      iszero\n        /* \"#utility.yul\":2026:2047   */\n      iszero\n        /* \"#utility.yul\":2015:2047   */\n      swap1\n      pop\n        /* \"#utility.yul\":1963:2053   */\n      swap2\n      swap1\n      pop\n      jump\t// out\n        /* \"#utility.yul\":2059:2168   */\n    tag_61:\n        /* \"#utility.yul\":2140:2161   */\n      tag_95\n        /* \"#utility.yul\":2155:2160   */\n      dup2\n        /* \"#utility.yul\":2140:2161   */\n      tag_60\n      jump\t// in\n    tag_95:\n        /* \"#utility.yul\":2135:2138   */\n      dup3\n        /* \"#utility.yul\":2128:2162   */\n      mstore\n        /* \"#utility.yul\":2059:2168   */\n      pop\n      pop\n      jump\t// out\n        /* \"#utility.yul\":2174:2384   */\n    tag_20:\n        /* \"#utility.yul\":2261:2265   */\n      0x00\n        /* \"#utility.yul\":2299:2301   */\n      0x20\n        /* \"#utility.yul\":2288:2297   */\n      dup3\n        /* \"#utility.yul\":2284:2302   */\n      add\n        /* \"#utility.yul\":2276:2302   */\n      swap1\n      pop\n        /* \"#utility.yul\":2312:2377   */\n      tag_97\n        /* \"#utility.yul\":2374:2375   */\n      0x00\n        /* \"#utility.yul\":2363:2372   */\n      dup4\n        /* \"#utility.yul\":2359:2376   */\n      add\n        /* \"#utility.yul\":2350:2356   */\n      dup5\n        /* \"#utility.yul\":2312:2377   */\n      tag_61\n      jump\t// in\n    tag_97:\n        /* \"#utility.yul\":2174:2384   */\n      swap3\n      swap2\n      pop\n      pop\n      jump\t// out\n        /* \"#utility.yul\":2390:2506   */\n    tag_62:\n        /* \"#utility.yul\":2460:2481   */\n      tag_99\n        /* \"#utility.yul\":2475:2480   */\n      dup2\n        /* \"#utility.yul\":2460:2481   */\n      tag_60\n      jump\t// in\n    tag_99:\n        /* \"#utility.yul\":2453:2458   */\n      dup2\n        /* \"#utility.yul\":2450:2482   */\n      eq\n        /* \"#utility.yul\":2440:2500   */\n      tag_100\n      jumpi\n        /* \"#utility.yul\":2496:2497   */\n      0x00\n        /* \"#utility.yul\":2493:2494   */\n      dup1\n        /* \"#utility.yul\":2486:2498   */\n      revert\n        /* \"#utility.yul\":2440:2500   */\n    tag_100:\n        /* \"#utility.yul\":2390:2506   */\n      pop\n      jump\t// out\n        /* \"#utility.yul\":2512:2649   */\n    tag_63:\n        /* \"#utility.yul\":2566:2571   */\n      0x00\n        /* \"#utility.yul\":2597:2603   */\n      dup2\n        /* \"#utility.yul\":2591:2604   */\n      mload\n        /* \"#utility.yul\":2582:2604   */\n      swap1\n      pop\n        /* \"#utility.yul\":2613:2643   */\n      tag_102\n        /* \"#utility.yul\":2637:2642   */\n      dup2\n        /* \"#utility.yul\":2613:2643   */\n      tag_62\n      jump\t// in\n    tag_102:\n        /* \"#utility.yul\":2512:2649   */\n      swap3\n      swap2\n      pop\n      pop\n      jump\t// out\n        /* \"#utility.yul\":2655:3000   */\n    tag_28:\n        /* \"#utility.yul\":2722:2728   */\n      0x00\n        /* \"#utility.yul\":2771:2773   */\n      0x20\n        /* \"#utility.yul\":2759:2768   */\n      dup3\n        /* \"#utility.yul\":2750:2757   */\n      dup5\n        /* \"#utility.yul\":2746:2769   */\n      sub\n        /* \"#utility.yul\":2742:2774   */\n      slt\n        /* \"#utility.yul\":2739:2858   */\n      iszero\n      tag_104\n      jumpi\n        /* \"#utility.yul\":2777:2856   */\n      tag_105\n      tag_56\n      jump\t// in\n    tag_105:\n        /* \"#utility.yul\":2739:2858   */\n    tag_104:\n        /* \"#utility.yul\":2897:2898   */\n      0x00\n        /* \"#utility.yul\":2922:2983   */\n      tag_106\n        /* \"#utility.yul\":2975:2982   */\n      dup5\n        /* \"#utility.yul\":2966:2972   */\n      dup3\n        /* \"#utility.yul\":2955:2964   */\n      dup6\n        /* \"#utility.yul\":2951:2973   */\n      add\n        /* \"#utility.yul\":2922:2983   */\n      tag_63\n      jump\t// in\n    tag_106:\n        /* \"#utility.yul\":2912:2983   */\n      swap2\n      pop\n        /* \"#utility.yul\":2868:2993   */\n      pop\n        /* \"#utility.yul\":2655:3000   */\n      swap3\n      swap2\n      pop\n      pop\n      jump\t// out\n        /* \"#utility.yul\":3006:3175   */\n    tag_64:\n        /* \"#utility.yul\":3090:3101   */\n      0x00\n        /* \"#utility.yul\":3124:3130   */\n      dup3\n        /* \"#utility.yul\":3119:3122   */\n      dup3\n        /* \"#utility.yul\":3112:3131   */\n      mstore\n        /* \"#utility.yul\":3164:3168   */\n      0x20\n        /* \"#utility.yul\":3159:3162   */\n      dup3\n        /* \"#utility.yul\":3155:3169   */\n      add\n        /* \"#utility.yul\":3140:3169   */\n      swap1\n      pop\n        /* \"#utility.yul\":3006:3175   */\n      swap3\n      swap2\n      pop\n      pop\n      jump\t// out\n        /* \"#utility.yul\":3181:3356   */\n    tag_65:\n        /* \"#utility.yul\":3321:3348   */\n      0x47616d65206973206e6f742066696e6973686564207965742100000000000000\n        /* \"#utility.yul\":3317:3318   */\n      0x00\n        /* \"#utility.yul\":3309:3315   */\n      dup3\n        /* \"#utility.yul\":3305:3319   */\n      add\n        /* \"#utility.yul\":3298:3349   */\n      mstore\n        /* \"#utility.yul\":3181:3356   */\n      pop\n      jump\t// out\n        /* \"#utility.yul\":3362:3728   */\n    tag_66:\n        /* \"#utility.yul\":3504:3507   */\n      0x00\n        /* \"#utility.yul\":3525:3592   */\n      tag_110\n        /* \"#utility.yul\":3589:3591   */\n      0x19\n        /* \"#utility.yul\":3584:3587   */\n      dup4\n        /* \"#utility.yul\":3525:3592   */\n      tag_64\n      jump\t// in\n    tag_110:\n        /* \"#utility.yul\":3518:3592   */\n      swap2\n      pop\n        /* \"#utility.yul\":3601:3694   */\n      tag_111\n        /* \"#utility.yul\":3690:3693   */\n      dup3\n        /* \"#utility.yul\":3601:3694   */\n      tag_65\n      jump\t// in\n    tag_111:\n        /* \"#utility.yul\":3719:3721   */\n      0x20\n        /* \"#utility.yul\":3714:3717   */\n      dup3\n        /* \"#utility.yul\":3710:3722   */\n      add\n        /* \"#utility.yul\":3703:3722   */\n      swap1\n      pop\n        /* \"#utility.yul\":3362:3728   */\n      swap2\n      swap1\n      pop\n      jump\t// out\n        /* \"#utility.yul\":3734:4153   */\n    tag_31:\n        /* \"#utility.yul\":3900:3904   */\n      0x00\n        /* \"#utility.yul\":3938:3940   */\n      0x20\n        /* \"#utility.yul\":3927:3936   */\n      dup3\n        /* \"#utility.yul\":3923:3941   */\n      add\n        /* \"#utility.yul\":3915:3941   */\n      swap1\n      pop\n        /* \"#utility.yul\":3987:3996   */\n      dup2\n        /* \"#utility.yul\":3981:3985   */\n      dup2\n        /* \"#utility.yul\":3977:3997   */\n      sub\n        /* \"#utility.yul\":3973:3974   */\n      0x00\n        /* \"#utility.yul\":3962:3971   */\n      dup4\n        /* \"#utility.yul\":3958:3975   */\n      add\n        /* \"#utility.yul\":3951:3998   */\n      mstore\n        /* \"#utility.yul\":4015:4146   */\n      tag_113\n        /* \"#utility.yul\":4141:4145   */\n      dup2\n        /* \"#utility.yul\":4015:4146   */\n      tag_66\n      jump\t// in\n    tag_113:\n        /* \"#utility.yul\":4007:4146   */\n      swap1\n      pop\n        /* \"#utility.yul\":3734:4153   */\n      swap2\n      swap1\n      pop\n      jump\t// out\n        /* \"#utility.yul\":4159:4339   */\n    tag_35:\n        /* \"#utility.yul\":4207:4284   */\n      0x4e487b7100000000000000000000000000000000000000000000000000000000\n        /* \"#utility.yul\":4204:4205   */\n      0x00\n        /* \"#utility.yul\":4197:4285   */\n      mstore\n        /* \"#utility.yul\":4304:4308   */\n      0x32\n        /* \"#utility.yul\":4301:4302   */\n      0x04\n        /* \"#utility.yul\":4294:4309   */\n      mstore\n        /* \"#utility.yul\":4328:4332   */\n      0x24\n        /* \"#utility.yul\":4325:4326   */\n      0x00\n        /* \"#utility.yul\":4318:4333   */\n      revert\n        /* \"#utility.yul\":4345:4525   */\n    tag_67:\n        /* \"#utility.yul\":4393:4470   */\n      0x4e487b7100000000000000000000000000000000000000000000000000000000\n        /* \"#utility.yul\":4390:4391   */\n      0x00\n        /* \"#utility.yul\":4383:4471   */\n      mstore\n        /* \"#utility.yul\":4490:4494   */\n      0x11\n        /* \"#utility.yul\":4487:4488   */\n      0x04\n        /* \"#utility.yul\":4480:4495   */\n      mstore\n        /* \"#utility.yul\":4514:4518   */\n      0x24\n        /* \"#utility.yul\":4511:4512   */\n      0x00\n        /* \"#utility.yul\":4504:4519   */\n      revert\n        /* \"#utility.yul\":4531:4764   */\n    tag_46:\n        /* \"#utility.yul\":4570:4573   */\n      0x00\n        /* \"#utility.yul\":4593:4617   */\n      tag_117\n        /* \"#utility.yul\":4611:4616   */\n      dup3\n        /* \"#utility.yul\":4593:4617   */\n      tag_50\n      jump\t// in\n    tag_117:\n        /* \"#utility.yul\":4584:4617   */\n      swap2\n      pop\n        /* \"#utility.yul\":4639:4705   */\n      0xffffffffffffffffffffffffffffffffffffffffffffffffffffffffffffffff\n        /* \"#utility.yul\":4632:4637   */\n      dup3\n        /* \"#utility.yul\":4629:4706   */\n      sub\n        /* \"#utility.yul\":4626:4729   */\n      tag_118\n      jumpi\n        /* \"#utility.yul\":4709:4727   */\n      tag_119\n      tag_67\n      jump\t// in\n    tag_119:\n        /* \"#utility.yul\":4626:4729   */\n    tag_118:\n        /* \"#utility.yul\":4756:4757   */\n      0x01\n        /* \"#utility.yul\":4749:4754   */\n      dup3\n        /* \"#utility.yul\":4745:4758   */\n      add\n        /* \"#utility.yul\":4738:4758   */\n      swap1\n      pop\n        /* \"#utility.yul\":4531:4764   */\n      swap2\n      swap1\n      pop\n      jump\t// out\n        /* \"#utility.yul\":4770:4961   */\n    tag_49:\n        /* \"#utility.yul\":4810:4813   */\n      0x00\n        /* \"#utility.yul\":4829:4849   */\n      tag_121\n        /* \"#utility.yul\":4847:4848   */\n      dup3\n        /* \"#utility.yul\":4829:4849   */\n      tag_50\n      jump\t// in\n    tag_121:\n        /* \"#utility.yul\":4824:4849   */\n      swap2\n      pop\n        /* \"#utility.yul\":4863:4883   */\n      tag_122\n        /* \"#utility.yul\":4881:4882   */\n      dup4\n        /* \"#utility.yul\":4863:4883   */\n      tag_50\n      jump\t// in\n    tag_122:\n        /* \"#utility.yul\":4858:4883   */\n      swap3\n      pop\n        /* \"#utility.yul\":4906:4907   */\n      dup3\n        /* \"#utility.yul\":4903:4904   */\n      dup3\n        /* \"#utility.yul\":4899:4908   */\n      add\n        /* \"#utility.yul\":4892:4908   */\n      swap1\n      pop\n        /* \"#utility.yul\":4927:4930   */\n      dup1\n        /* \"#utility.yul\":4924:4925   */\n      dup3\n        /* \"#utility.yul\":4921:4931   */\n      gt\n        /* \"#utility.yul\":4918:4954   */\n      iszero\n      tag_123\n      jumpi\n        /* \"#utility.yul\":4934:4952   */\n      tag_124\n      tag_67\n      jump\t// in\n    tag_124:\n        /* \"#utility.yul\":4918:4954   */\n    tag_123:\n        /* \"#utility.yul\":4770:4961   */\n      swap3\n      swap2\n      pop\n      pop\n      jump\t// out\n\n    auxdata: 0xa264697066735822122085246288bfe37c03776c117d8aa19c4b7cd51a17ac89b7754bc86b45251baace64736f6c63430008120033\n}\n",
				"bytecode": {
					"linkReferences": {},
					"object": "60806040523480156200001157600080fd5b5060405162000902380380620009028339818101604052810190620000379190620002fa565b80600090805190602001906200004f9291906200005e565b5042600181905550506200034b565b828054828255906000526020600020908101928215620000da579160200282015b82811115620000d95782518260006101000a81548173ffffffffffffffffffffffffffffffffffffffff021916908373ffffffffffffffffffffffffffffffffffffffff160217905550916020019190600101906200007f565b5b509050620000e99190620000ed565b5090565b5b8082111562000108576000816000905550600101620000ee565b5090565b6000604051905090565b600080fd5b600080fd5b600080fd5b6000601f19601f8301169050919050565b7f4e487b7100000000000000000000000000000000000000000000000000000000600052604160045260246000fd5b620001708262000125565b810181811067ffffffffffffffff8211171562000192576200019162000136565b5b80604052505050565b6000620001a76200010c565b9050620001b5828262000165565b919050565b600067ffffffffffffffff821115620001d857620001d762000136565b5b602082029050602081019050919050565b600080fd5b600073ffffffffffffffffffffffffffffffffffffffff82169050919050565b60006200021b82620001ee565b9050919050565b6200022d816200020e565b81146200023957600080fd5b50565b6000815190506200024d8162000222565b92915050565b60006200026a6200026484620001ba565b6200019b565b9050808382526020820190506020840283018581111562000290576200028f620001e9565b5b835b81811015620002bd5780620002a888826200023c565b84526020840193505060208101905062000292565b5050509392505050565b600082601f830112620002df57620002de62000120565b5b8151620002f184826020860162000253565b91505092915050565b60006020828403121562000313576200031262000116565b5b600082015167ffffffffffffffff8111156200033457620003336200011b565b5b6200034284828501620002c7565b91505092915050565b6105a7806200035b6000396000f3fe608060405234801561001057600080fd5b506004361061004c5760003560e01c806347ebf387146100515780638e7ea5b21461006f578063a74bfc921461008d578063ef890cc8146100bd575b600080fd5b6100596100db565b60405161006691906102b6565b60405180910390f35b6100776100e1565b6040516100849190610312565b60405180910390f35b6100a760048036038101906100a2919061035e565b6101d7565b6040516100b491906103a6565b60405180910390f35b6100c5610285565b6040516100d291906103a6565b60405180910390f35b60015481565b60003073ffffffffffffffffffffffffffffffffffffffff1663ef890cc86040518163ffffffff1660e01b81526004016020604051808303816000875af1158015610130573d6000803e3d6000fd5b505050506040513d601f19601f8201168201806040525081019061015491906103ed565b610193576040517f08c379a000000000000000000000000000000000000000000000000000000000815260040161018a90610477565b60405180910390fd5b600080815481106101a7576101a6610497565b5b9060005260206000200160009054906101000a900473ffffffffffffffffffffffffffffffffffffffff16905090565b600080600090505b60008054905081101561027a578273ffffffffffffffffffffffffffffffffffffffff166000828154811061021757610216610497565b5b9060005260206000200160009054906101000a900473ffffffffffffffffffffffffffffffffffffffff1673ffffffffffffffffffffffffffffffffffffffff1603610267576001915050610280565b8080610272906104f5565b9150506101df565b50600090505b919050565b6000600a600154610296919061053d565b4211905090565b6000819050919050565b6102b08161029d565b82525050565b60006020820190506102cb60008301846102a7565b92915050565b600073ffffffffffffffffffffffffffffffffffffffff82169050919050565b60006102fc826102d1565b9050919050565b61030c816102f1565b82525050565b60006020820190506103276000830184610303565b92915050565b600080fd5b61033b816102f1565b811461034657600080fd5b50565b60008135905061035881610332565b92915050565b6000602082840312156103745761037361032d565b5b600061038284828501610349565b91505092915050565b60008115159050919050565b6103a08161038b565b82525050565b60006020820190506103bb6000830184610397565b92915050565b6103ca8161038b565b81146103d557600080fd5b50565b6000815190506103e7816103c1565b92915050565b6000602082840312156104035761040261032d565b5b6000610411848285016103d8565b91505092915050565b600082825260208201905092915050565b7f47616d65206973206e6f742066696e6973686564207965742100000000000000600082015250565b600061046160198361041a565b915061046c8261042b565b602082019050919050565b6000602082019050818103600083015261049081610454565b9050919050565b7f4e487b7100000000000000000000000000000000000000000000000000000000600052603260045260246000fd5b7f4e487b7100000000000000000000000000000000000000000000000000000000600052601160045260246000fd5b60006105008261029d565b91507fffffffffffffffffffffffffffffffffffffffffffffffffffffffffffffffff8203610532576105316104c6565b5b600182019050919050565b60006105488261029d565b91506105538361029d565b925082820190508082111561056b5761056a6104c6565b5b9291505056fea264697066735822122085246288bfe37c03776c117d8aa19c4b7cd51a17ac89b7754bc86b45251baace64736f6c63430008120033",
					"opcodes": "PUSH1 0x80 PUSH1 0x40 MSTORE CALLVALUE DUP1 ISZERO PUSH3 0x11 JUMPI PUSH1 0x0 DUP1 REVERT JUMPDEST POP PUSH1 0x40 MLOAD PUSH3 0x902 CODESIZE SUB DUP1 PUSH3 0x902 DUP4 CODECOPY DUP2 DUP2 ADD PUSH1 0x40 MSTORE DUP2 ADD SWAP1 PUSH3 0x37 SWAP2 SWAP1 PUSH3 0x2FA JUMP JUMPDEST DUP1 PUSH1 0x0 SWAP1 DUP1 MLOAD SWAP1 PUSH1 0x20 ADD SWAP1 PUSH3 0x4F SWAP3 SWAP2 SWAP1 PUSH3 0x5E JUMP JUMPDEST POP TIMESTAMP PUSH1 0x1 DUP2 SWAP1 SSTORE POP POP PUSH3 0x34B JUMP JUMPDEST DUP3 DUP1 SLOAD DUP3 DUP3 SSTORE SWAP1 PUSH1 0x0 MSTORE PUSH1 0x20 PUSH1 0x0 KECCAK256 SWAP1 DUP2 ADD SWAP3 DUP3 ISZERO PUSH3 0xDA JUMPI SWAP2 PUSH1 0x20 MUL DUP3 ADD JUMPDEST DUP3 DUP2 GT ISZERO PUSH3 0xD9 JUMPI DUP3 MLOAD DUP3 PUSH1 0x0 PUSH2 0x100 EXP DUP2 SLOAD DUP2 PUSH20 0xFFFFFFFFFFFFFFFFFFFFFFFFFFFFFFFFFFFFFFFF MUL NOT AND SWAP1 DUP4 PUSH20 0xFFFFFFFFFFFFFFFFFFFFFFFFFFFFFFFFFFFFFFFF AND MUL OR SWAP1 SSTORE POP SWAP2 PUSH1 0x20 ADD SWAP2 SWAP1 PUSH1 0x1 ADD SWAP1 PUSH3 0x7F JUMP JUMPDEST JUMPDEST POP SWAP1 POP PUSH3 0xE9 SWAP2 SWAP1 PUSH3 0xED JUMP JUMPDEST POP SWAP1 JUMP JUMPDEST JUMPDEST DUP1 DUP3 GT ISZERO PUSH3 0x108 JUMPI PUSH1 0x0 DUP2 PUSH1 0x0 SWAP1 SSTORE POP PUSH1 0x1 ADD PUSH3 0xEE JUMP JUMPDEST POP SWAP1 JUMP JUMPDEST PUSH1 0x0 PUSH1 0x40 MLOAD SWAP1 POP SWAP1 JUMP JUMPDEST PUSH1 0x0 DUP1 REVERT JUMPDEST PUSH1 0x0 DUP1 REVERT JUMPDEST PUSH1 0x0 DUP1 REVERT JUMPDEST PUSH1 0x0 PUSH1 0x1F NOT PUSH1 0x1F DUP4 ADD AND SWAP1 POP SWAP2 SWAP1 POP JUMP JUMPDEST PUSH32 0x4E487B7100000000000000000000000000000000000000000000000000000000 PUSH1 0x0 MSTORE PUSH1 0x41 PUSH1 0x4 MSTORE PUSH1 0x24 PUSH1 0x0 REVERT JUMPDEST PUSH3 0x170 DUP3 PUSH3 0x125 JUMP JUMPDEST DUP2 ADD DUP2 DUP2 LT PUSH8 0xFFFFFFFFFFFFFFFF DUP3 GT OR ISZERO PUSH3 0x192 JUMPI PUSH3 0x191 PUSH3 0x136 JUMP JUMPDEST JUMPDEST DUP1 PUSH1 0x40 MSTORE POP POP POP JUMP JUMPDEST PUSH1 0x0 PUSH3 0x1A7 PUSH3 0x10C JUMP JUMPDEST SWAP1 POP PUSH3 0x1B5 DUP3 DUP3 PUSH3 0x165 JUMP JUMPDEST SWAP2 SWAP1 POP JUMP JUMPDEST PUSH1 0x0 PUSH8 0xFFFFFFFFFFFFFFFF DUP3 GT ISZERO PUSH3 0x1D8 JUMPI PUSH3 0x1D7 PUSH3 0x136 JUMP JUMPDEST JUMPDEST PUSH1 0x20 DUP3 MUL SWAP1 POP PUSH1 0x20 DUP2 ADD SWAP1 POP SWAP2 SWAP1 POP JUMP JUMPDEST PUSH1 0x0 DUP1 REVERT JUMPDEST PUSH1 0x0 PUSH20 0xFFFFFFFFFFFFFFFFFFFFFFFFFFFFFFFFFFFFFFFF DUP3 AND SWAP1 POP SWAP2 SWAP1 POP JUMP JUMPDEST PUSH1 0x0 PUSH3 0x21B DUP3 PUSH3 0x1EE JUMP JUMPDEST SWAP1 POP SWAP2 SWAP1 POP JUMP JUMPDEST PUSH3 0x22D DUP2 PUSH3 0x20E JUMP JUMPDEST DUP2 EQ PUSH3 0x239 JUMPI PUSH1 0x0 DUP1 REVERT JUMPDEST POP JUMP JUMPDEST PUSH1 0x0 DUP2 MLOAD SWAP1 POP PUSH3 0x24D DUP2 PUSH3 0x222 JUMP JUMPDEST SWAP3 SWAP2 POP POP JUMP JUMPDEST PUSH1 0x0 PUSH3 0x26A PUSH3 0x264 DUP5 PUSH3 0x1BA JUMP JUMPDEST PUSH3 0x19B JUMP JUMPDEST SWAP1 POP DUP1 DUP4 DUP3 MSTORE PUSH1 0x20 DUP3 ADD SWAP1 POP PUSH1 0x20 DUP5 MUL DUP4 ADD DUP6 DUP2 GT ISZERO PUSH3 0x290 JUMPI PUSH3 0x28F PUSH3 0x1E9 JUMP JUMPDEST JUMPDEST DUP4 JUMPDEST DUP2 DUP2 LT ISZERO PUSH3 0x2BD JUMPI DUP1 PUSH3 0x2A8 DUP9 DUP3 PUSH3 0x23C JUMP JUMPDEST DUP5 MSTORE PUSH1 0x20 DUP5 ADD SWAP4 POP POP PUSH1 0x20 DUP2 ADD SWAP1 POP PUSH3 0x292 JUMP JUMPDEST POP POP POP SWAP4 SWAP3 POP POP POP JUMP JUMPDEST PUSH1 0x0 DUP3 PUSH1 0x1F DUP4 ADD SLT PUSH3 0x2DF JUMPI PUSH3 0x2DE PUSH3 0x120 JUMP JUMPDEST JUMPDEST DUP2 MLOAD PUSH3 0x2F1 DUP5 DUP3 PUSH1 0x20 DUP7 ADD PUSH3 0x253 JUMP JUMPDEST SWAP2 POP POP SWAP3 SWAP2 POP POP JUMP JUMPDEST PUSH1 0x0 PUSH1 0x20 DUP3 DUP5 SUB SLT ISZERO PUSH3 0x313 JUMPI PUSH3 0x312 PUSH3 0x116 JUMP JUMPDEST JUMPDEST PUSH1 0x0 DUP3 ADD MLOAD PUSH8 0xFFFFFFFFFFFFFFFF DUP2 GT ISZERO PUSH3 0x334 JUMPI PUSH3 0x333 PUSH3 0x11B JUMP JUMPDEST JUMPDEST PUSH3 0x342 DUP5 DUP3 DUP6 ADD PUSH3 0x2C7 JUMP JUMPDEST SWAP2 POP POP SWAP3 SWAP2 POP POP JUMP JUMPDEST PUSH2 0x5A7 DUP1 PUSH3 0x35B PUSH1 0x0 CODECOPY PUSH1 0x0 RETURN INVALID PUSH1 0x80 PUSH1 0x40 MSTORE CALLVALUE DUP1 ISZERO PUSH2 0x10 JUMPI PUSH1 0x0 DUP1 REVERT JUMPDEST POP PUSH1 0x4 CALLDATASIZE LT PUSH2 0x4C JUMPI PUSH1 0x0 CALLDATALOAD PUSH1 0xE0 SHR DUP1 PUSH4 0x47EBF387 EQ PUSH2 0x51 JUMPI DUP1 PUSH4 0x8E7EA5B2 EQ PUSH2 0x6F JUMPI DUP1 PUSH4 0xA74BFC92 EQ PUSH2 0x8D JUMPI DUP1 PUSH4 0xEF890CC8 EQ PUSH2 0xBD JUMPI JUMPDEST PUSH1 0x0 DUP1 REVERT JUMPDEST PUSH2 0x59 PUSH2 0xDB JUMP JUMPDEST PUSH1 0x40 MLOAD PUSH2 0x66 SWAP2 SWAP1 PUSH2 0x2B6 JUMP JUMPDEST PUSH1 0x40 MLOAD DUP1 SWAP2 SUB SWAP1 RETURN JUMPDEST PUSH2 0x77 PUSH2 0xE1 JUMP JUMPDEST PUSH1 0x40 MLOAD PUSH2 0x84 SWAP2 SWAP1 PUSH2 0x312 JUMP JUMPDEST PUSH1 0x40 MLOAD DUP1 SWAP2 SUB SWAP1 RETURN JUMPDEST PUSH2 0xA7 PUSH1 0x4 DUP1 CALLDATASIZE SUB DUP2 ADD SWAP1 PUSH2 0xA2 SWAP2 SWAP1 PUSH2 0x35E JUMP JUMPDEST PUSH2 0x1D7 JUMP JUMPDEST PUSH1 0x40 MLOAD PUSH2 0xB4 SWAP2 SWAP1 PUSH2 0x3A6 JUMP JUMPDEST PUSH1 0x40 MLOAD DUP1 SWAP2 SUB SWAP1 RETURN JUMPDEST PUSH2 0xC5 PUSH2 0x285 JUMP JUMPDEST PUSH1 0x40 MLOAD PUSH2 0xD2 SWAP2 SWAP1 PUSH2 0x3A6 JUMP JUMPDEST PUSH1 0x40 MLOAD DUP1 SWAP2 SUB SWAP1 RETURN JUMPDEST PUSH1 0x1 SLOAD DUP2 JUMP JUMPDEST PUSH1 0x0 ADDRESS PUSH20 0xFFFFFFFFFFFFFFFFFFFFFFFFFFFFFFFFFFFFFFFF AND PUSH4 0xEF890CC8 PUSH1 0x40 MLOAD DUP2 PUSH4 0xFFFFFFFF AND PUSH1 0xE0 SHL DUP2 MSTORE PUSH1 0x4 ADD PUSH1 0x20 PUSH1 0x40 MLOAD DUP1 DUP4 SUB DUP2 PUSH1 0x0 DUP8 GAS CALL ISZERO DUP1 ISZERO PUSH2 0x130 JUMPI RETURNDATASIZE PUSH1 0x0 DUP1 RETURNDATACOPY RETURNDATASIZE PUSH1 0x0 REVERT JUMPDEST POP POP POP POP PUSH1 0x40 MLOAD RETURNDATASIZE PUSH1 0x1F NOT PUSH1 0x1F DUP3 ADD AND DUP3 ADD DUP1 PUSH1 0x40 MSTORE POP DUP2 ADD SWAP1 PUSH2 0x154 SWAP2 SWAP1 PUSH2 0x3ED JUMP JUMPDEST PUSH2 0x193 JUMPI PUSH1 0x40 MLOAD PUSH32 0x8C379A000000000000000000000000000000000000000000000000000000000 DUP2 MSTORE PUSH1 0x4 ADD PUSH2 0x18A SWAP1 PUSH2 0x477 JUMP JUMPDEST PUSH1 0x40 MLOAD DUP1 SWAP2 SUB SWAP1 REVERT JUMPDEST PUSH1 0x0 DUP1 DUP2 SLOAD DUP2 LT PUSH2 0x1A7 JUMPI PUSH2 0x1A6 PUSH2 0x497 JUMP JUMPDEST JUMPDEST SWAP1 PUSH1 0x0 MSTORE PUSH1 0x20 PUSH1 0x0 KECCAK256 ADD PUSH1 0x0 SWAP1 SLOAD SWAP1 PUSH2 0x100 EXP SWAP1 DIV PUSH20 0xFFFFFFFFFFFFFFFFFFFFFFFFFFFFFFFFFFFFFFFF AND SWAP1 POP SWAP1 JUMP JUMPDEST PUSH1 0x0 DUP1 PUSH1 0x0 SWAP1 POP JUMPDEST PUSH1 0x0 DUP1 SLOAD SWAP1 POP DUP2 LT ISZERO PUSH2 0x27A JUMPI DUP3 PUSH20 0xFFFFFFFFFFFFFFFFFFFFFFFFFFFFFFFFFFFFFFFF AND PUSH1 0x0 DUP3 DUP2 SLOAD DUP2 LT PUSH2 0x217 JUMPI PUSH2 0x216 PUSH2 0x497 JUMP JUMPDEST JUMPDEST SWAP1 PUSH1 0x0 MSTORE PUSH1 0x20 PUSH1 0x0 KECCAK256 ADD PUSH1 0x0 SWAP1 SLOAD SWAP1 PUSH2 0x100 EXP SWAP1 DIV PUSH20 0xFFFFFFFFFFFFFFFFFFFFFFFFFFFFFFFFFFFFFFFF AND PUSH20 0xFFFFFFFFFFFFFFFFFFFFFFFFFFFFFFFFFFFFFFFF AND SUB PUSH2 0x267 JUMPI PUSH1 0x1 SWAP2 POP POP PUSH2 0x280 JUMP JUMPDEST DUP1 DUP1 PUSH2 0x272 SWAP1 PUSH2 0x4F5 JUMP JUMPDEST SWAP2 POP POP PUSH2 0x1DF JUMP JUMPDEST POP PUSH1 0x0 SWAP1 POP JUMPDEST SWAP2 SWAP1 POP JUMP JUMPDEST PUSH1 0x0 PUSH1 0xA PUSH1 0x1 SLOAD PUSH2 0x296 SWAP2 SWAP1 PUSH2 0x53D JUMP JUMPDEST TIMESTAMP GT SWAP1 POP SWAP1 JUMP JUMPDEST PUSH1 0x0 DUP2 SWAP1 POP SWAP2 SWAP1 POP JUMP JUMPDEST PUSH2 0x2B0 DUP2 PUSH2 0x29D JUMP JUMPDEST DUP3 MSTORE POP POP JUMP JUMPDEST PUSH1 0x0 PUSH1 0x20 DUP3 ADD SWAP1 POP PUSH2 0x2CB PUSH1 0x0 DUP4 ADD DUP5 PUSH2 0x2A7 JUMP JUMPDEST SWAP3 SWAP2 POP POP JUMP JUMPDEST PUSH1 0x0 PUSH20 0xFFFFFFFFFFFFFFFFFFFFFFFFFFFFFFFFFFFFFFFF DUP3 AND SWAP1 POP SWAP2 SWAP1 POP JUMP JUMPDEST PUSH1 0x0 PUSH2 0x2FC DUP3 PUSH2 0x2D1 JUMP JUMPDEST SWAP1 POP SWAP2 SWAP1 POP JUMP JUMPDEST PUSH2 0x30C DUP2 PUSH2 0x2F1 JUMP JUMPDEST DUP3 MSTORE POP POP JUMP JUMPDEST PUSH1 0x0 PUSH1 0x20 DUP3 ADD SWAP1 POP PUSH2 0x327 PUSH1 0x0 DUP4 ADD DUP5 PUSH2 0x303 JUMP JUMPDEST SWAP3 SWAP2 POP POP JUMP JUMPDEST PUSH1 0x0 DUP1 REVERT JUMPDEST PUSH2 0x33B DUP2 PUSH2 0x2F1 JUMP JUMPDEST DUP2 EQ PUSH2 0x346 JUMPI PUSH1 0x0 DUP1 REVERT JUMPDEST POP JUMP JUMPDEST PUSH1 0x0 DUP2 CALLDATALOAD SWAP1 POP PUSH2 0x358 DUP2 PUSH2 0x332 JUMP JUMPDEST SWAP3 SWAP2 POP POP JUMP JUMPDEST PUSH1 0x0 PUSH1 0x20 DUP3 DUP5 SUB SLT ISZERO PUSH2 0x374 JUMPI PUSH2 0x373 PUSH2 0x32D JUMP JUMPDEST JUMPDEST PUSH1 0x0 PUSH2 0x382 DUP5 DUP3 DUP6 ADD PUSH2 0x349 JUMP JUMPDEST SWAP2 POP POP SWAP3 SWAP2 POP POP JUMP JUMPDEST PUSH1 0x0 DUP2 ISZERO ISZERO SWAP1 POP SWAP2 SWAP1 POP JUMP JUMPDEST PUSH2 0x3A0 DUP2 PUSH2 0x38B JUMP JUMPDEST DUP3 MSTORE POP POP JUMP JUMPDEST PUSH1 0x0 PUSH1 0x20 DUP3 ADD SWAP1 POP PUSH2 0x3BB PUSH1 0x0 DUP4 ADD DUP5 PUSH2 0x397 JUMP JUMPDEST SWAP3 SWAP2 POP POP JUMP JUMPDEST PUSH2 0x3CA DUP2 PUSH2 0x38B JUMP JUMPDEST DUP2 EQ PUSH2 0x3D5 JUMPI PUSH1 0x0 DUP1 REVERT JUMPDEST POP JUMP JUMPDEST PUSH1 0x0 DUP2 MLOAD SWAP1 POP PUSH2 0x3E7 DUP2 PUSH2 0x3C1 JUMP JUMPDEST SWAP3 SWAP2 POP POP JUMP JUMPDEST PUSH1 0x0 PUSH1 0x20 DUP3 DUP5 SUB SLT ISZERO PUSH2 0x403 JUMPI PUSH2 0x402 PUSH2 0x32D JUMP JUMPDEST JUMPDEST PUSH1 0x0 PUSH2 0x411 DUP5 DUP3 DUP6 ADD PUSH2 0x3D8 JUMP JUMPDEST SWAP2 POP POP SWAP3 SWAP2 POP POP JUMP JUMPDEST PUSH1 0x0 DUP3 DUP3 MSTORE PUSH1 0x20 DUP3 ADD SWAP1 POP SWAP3 SWAP2 POP POP JUMP JUMPDEST PUSH32 0x47616D65206973206E6F742066696E6973686564207965742100000000000000 PUSH1 0x0 DUP3 ADD MSTORE POP JUMP JUMPDEST PUSH1 0x0 PUSH2 0x461 PUSH1 0x19 DUP4 PUSH2 0x41A JUMP JUMPDEST SWAP2 POP PUSH2 0x46C DUP3 PUSH2 0x42B JUMP JUMPDEST PUSH1 0x20 DUP3 ADD SWAP1 POP SWAP2 SWAP1 POP JUMP JUMPDEST PUSH1 0x0 PUSH1 0x20 DUP3 ADD SWAP1 POP DUP2 DUP2 SUB PUSH1 0x0 DUP4 ADD MSTORE PUSH2 0x490 DUP2 PUSH2 0x454 JUMP JUMPDEST SWAP1 POP SWAP2 SWAP1 POP JUMP JUMPDEST PUSH32 0x4E487B7100000000000000000000000000000000000000000000000000000000 PUSH1 0x0 MSTORE PUSH1 0x32 PUSH1 0x4 MSTORE PUSH1 0x24 PUSH1 0x0 REVERT JUMPDEST PUSH32 0x4E487B7100000000000000000000000000000000000000000000000000000000 PUSH1 0x0 MSTORE PUSH1 0x11 PUSH1 0x4 MSTORE PUSH1 0x24 PUSH1 0x0 REVERT JUMPDEST PUSH1 0x0 PUSH2 0x500 DUP3 PUSH2 0x29D JUMP JUMPDEST SWAP2 POP PUSH32 0xFFFFFFFFFFFFFFFFFFFFFFFFFFFFFFFFFFFFFFFFFFFFFFFFFFFFFFFFFFFFFFFF DUP3 SUB PUSH2 0x532 JUMPI PUSH2 0x531 PUSH2 0x4C6 JUMP JUMPDEST JUMPDEST PUSH1 0x1 DUP3 ADD SWAP1 POP SWAP2 SWAP1 POP JUMP JUMPDEST PUSH1 0x0 PUSH2 0x548 DUP3 PUSH2 0x29D JUMP JUMPDEST SWAP2 POP PUSH2 0x553 DUP4 PUSH2 0x29D JUMP JUMPDEST SWAP3 POP DUP3 DUP3 ADD SWAP1 POP DUP1 DUP3 GT ISZERO PUSH2 0x56B JUMPI PUSH2 0x56A PUSH2 0x4C6 JUMP JUMPDEST JUMPDEST SWAP3 SWAP2 POP POP JUMP INVALID LOG2 PUSH5 0x6970667358 0x22 SLT KECCAK256 DUP6 0x24 PUSH3 0x88BFE3 PUSH29 0x3776C117D8AA19C4B7CD51A17AC89B7754BC86B45251BAACE64736F6C PUSH4 0x43000812 STOP CALLER "
				},
				"gasEstimates": {
					"creation": {
						"codeDepositCost": "289400",
						"executionCost": "infinite",
						"totalCost": "infinite"
					},
					"external": {
						"containsPlayer(address)": "infinite",
						"gameContractStartTime()": "2407",
						"getWinner()": "infinite",
						"isGameFinished()": "infinite"
					}
				},
				"methodIdentifiers": {
					"containsPlayer(address)": "a74bfc92",
					"gameContractStartTime()": "47ebf387",
					"getWinner()": "8e7ea5b2",
					"isGameFinished()": "ef890cc8"
				}
			},
			"storageLayout": {
				"storage": [
					{
						"astId": 197,
						"contract": "contracts/GameContract.sol:GameContract",
						"label": "players",
						"offset": 0,
						"slot": "0",
						"type": "t_array(t_address)dyn_storage"
					},
					{
						"astId": 199,
						"contract": "contracts/GameContract.sol:GameContract",
						"label": "gameContractStartTime",
						"offset": 0,
						"slot": "1",
						"type": "t_uint256"
					}
				],
				"types": {
					"t_address": {
						"encoding": "inplace",
						"label": "address",
						"numberOfBytes": "20"
					},
					"t_array(t_address)dyn_storage": {
						"base": "t_address",
						"encoding": "dynamic_array",
						"label": "address[]",
						"numberOfBytes": "32"
					},
					"t_uint256": {
						"encoding": "inplace",
						"label": "uint256",
						"numberOfBytes": "32"
					}
				}
			},
			"userdoc": {
				"kind": "user",
				"methods": {},
				"version": 1
			}
		}
	}
}